{
  "_format": "hh-sol-artifact-1",
  "contractName": "CryptoX",
  "sourceName": "contracts/CryptoX.sol",
  "abi": [
    {
      "anonymous": false,
      "inputs": [
        {
          "indexed": true,
          "internalType": "address",
          "name": "from",
          "type": "address"
        },
        {
          "indexed": true,
          "internalType": "address",
          "name": "to",
          "type": "address"
        },
        {
          "indexed": false,
          "internalType": "uint256",
          "name": "amount",
          "type": "uint256"
        }
      ],
      "name": "PaymentCreated",
      "type": "event"
    },
    {
      "anonymous": false,
      "inputs": [
        {
          "indexed": true,
          "internalType": "address",
          "name": "wallet",
          "type": "address"
        },
        {
          "indexed": false,
          "internalType": "string",
          "name": "name",
          "type": "string"
        }
      ],
      "name": "UserRegistered",
      "type": "event"
    },
    {
      "inputs": [
        {
          "internalType": "address",
          "name": "_to",
          "type": "address"
        },
        {
          "internalType": "uint256",
          "name": "_amount",
          "type": "uint256"
        }
      ],
      "name": "createPaymentRequest",
      "outputs": [],
      "stateMutability": "nonpayable",
      "type": "function"
    },
    {
      "inputs": [
        {
          "internalType": "address",
          "name": "_user",
          "type": "address"
        }
      ],
      "name": "getPaymentRequests",
      "outputs": [
        {
          "components": [
            {
              "internalType": "address",
              "name": "fromAddress",
              "type": "address"
            },
            {
              "internalType": "address",
              "name": "toAddress",
              "type": "address"
            },
            {
              "internalType": "uint256",
              "name": "amount",
              "type": "uint256"
            },
            {
              "internalType": "string",
              "name": "status",
              "type": "string"
            },
            {
              "internalType": "uint256",
              "name": "createdAt",
              "type": "uint256"
            }
          ],
          "internalType": "struct CryptoX.PaymentRequest[]",
          "name": "",
          "type": "tuple[]"
        }
      ],
      "stateMutability": "view",
      "type": "function"
    },
    {
      "inputs": [
        {
          "internalType": "string",
          "name": "_phone",
          "type": "string"
        }
      ],
      "name": "getUser",
      "outputs": [
        {
          "internalType": "address",
          "name": "",
          "type": "address"
        },
        {
          "internalType": "string",
          "name": "",
          "type": "string"
        },
        {
          "internalType": "bool",
          "name": "",
          "type": "bool"
        }
      ],
      "stateMutability": "view",
      "type": "function"
    },
    {
      "inputs": [
        {
          "internalType": "string",
          "name": "_phone",
          "type": "string"
        },
        {
          "internalType": "string",
          "name": "_name",
          "type": "string"
        },
        {
          "internalType": "address",
          "name": "_wallet",
          "type": "address"
        }
      ],
      "name": "registerUser",
      "outputs": [],
      "stateMutability": "nonpayable",
      "type": "function"
    }
  ],
  "bytecode": "0x608060405234801561001057600080fd5b50611056806100206000396000f3fe608060405234801561001057600080fd5b506004361061004c5760003560e01c806331feb671146100515780637431eceb1461008357806388557b07146100b3578063a928c1bc146100cf575b600080fd5b61006b60048036038101906100669190610a2d565b6100eb565b60405161007a93929190610b5a565b60405180910390f35b61009d60048036038101906100989190610bc4565b610267565b6040516100aa9190610d9b565b60405180910390f35b6100cd60048036038101906100c89190610dbd565b610457565b005b6100e960048036038101906100e49190610e74565b610616565b005b60006060600080846040516020016101039190610ef0565b60405160208183030381529060405280519060200120905060008060008381526020019081526020016000206040518060800160405290816000820160009054906101000a900473ffffffffffffffffffffffffffffffffffffffff1673ffffffffffffffffffffffffffffffffffffffff1673ffffffffffffffffffffffffffffffffffffffff168152602001600182015481526020016002820180546101aa90610f36565b80601f01602080910402602001604051908101604052809291908181526020018280546101d690610f36565b80156102235780601f106101f857610100808354040283529160200191610223565b820191906000526020600020905b81548152906001019060200180831161020657829003601f168201915b505050505081526020016003820160009054906101000a900460ff161515151581525050905080600001518160400151826060015194509450945050509193909250565b6060600160008373ffffffffffffffffffffffffffffffffffffffff1673ffffffffffffffffffffffffffffffffffffffff168152602001908152602001600020805480602002602001604051908101604052809291908181526020016000905b8282101561044c57838290600052602060002090600502016040518060a00160405290816000820160009054906101000a900473ffffffffffffffffffffffffffffffffffffffff1673ffffffffffffffffffffffffffffffffffffffff1673ffffffffffffffffffffffffffffffffffffffff1681526020016001820160009054906101000a900473ffffffffffffffffffffffffffffffffffffffff1673ffffffffffffffffffffffffffffffffffffffff1673ffffffffffffffffffffffffffffffffffffffff168152602001600282015481526020016003820180546103b190610f36565b80601f01602080910402602001604051908101604052809291908181526020018280546103dd90610f36565b801561042a5780601f106103ff5761010080835404028352916020019161042a565b820191906000526020600020905b81548152906001019060200180831161040d57829003601f168201915b50505050508152602001600482015481525050815260200190600101906102c8565b505050509050919050565b60008360405160200161046a9190610ef0565b60405160208183030381529060405280519060200120905060008082815260200190815260200160002060030160009054906101000a900460ff16156104e5576040517f08c379a00000000000000000000000000000000000000000000000000000000081526004016104dc90610fb4565b60405180910390fd5b60405180608001604052808373ffffffffffffffffffffffffffffffffffffffff1681526020018281526020018481526020016001151581525060008083815260200190815260200160002060008201518160000160006101000a81548173ffffffffffffffffffffffffffffffffffffffff021916908373ffffffffffffffffffffffffffffffffffffffff16021790555060208201518160010155604082015181600201908051906020019061059e929190610830565b5060608201518160030160006101000a81548160ff0219169083151502179055509050508173ffffffffffffffffffffffffffffffffffffffff167f48cac28ad4dc618e15f4c2dd5e97751182f166de97b25618318b2112aa951a2f846040516106089190610fd4565b60405180910390a250505050565b600160003373ffffffffffffffffffffffffffffffffffffffff1673ffffffffffffffffffffffffffffffffffffffff1681526020019081526020016000206040518060a001604052803373ffffffffffffffffffffffffffffffffffffffff1681526020018473ffffffffffffffffffffffffffffffffffffffff1681526020018381526020016040518060400160405280600781526020017f50454e44494e4700000000000000000000000000000000000000000000000000815250815260200142815250908060018154018082558091505060019003906000526020600020906005020160009091909190915060008201518160000160006101000a81548173ffffffffffffffffffffffffffffffffffffffff021916908373ffffffffffffffffffffffffffffffffffffffff16021790555060208201518160010160006101000a81548173ffffffffffffffffffffffffffffffffffffffff021916908373ffffffffffffffffffffffffffffffffffffffff1602179055506040820151816002015560608201518160030190805190602001906107ba929190610830565b506080820151816004015550508173ffffffffffffffffffffffffffffffffffffffff163373ffffffffffffffffffffffffffffffffffffffff167f5224da1881e8f7e11d5141ff8a8ec931c1d2e711cfeec7f587372fb01d0cc42b836040516108249190611005565b60405180910390a35050565b82805461083c90610f36565b90600052602060002090601f01602090048101928261085e57600085556108a5565b82601f1061087757805160ff19168380011785556108a5565b828001600101855582156108a5579182015b828111156108a4578251825591602001919060010190610889565b5b5090506108b291906108b6565b5090565b5b808211156108cf5760008160009055506001016108b7565b5090565b6000604051905090565b600080fd5b600080fd5b600080fd5b600080fd5b6000601f19601f8301169050919050565b7f4e487b7100000000000000000000000000000000000000000000000000000000600052604160045260246000fd5b61093a826108f1565b810181811067ffffffffffffffff8211171561095957610958610902565b5b80604052505050565b600061096c6108d3565b90506109788282610931565b919050565b600067ffffffffffffffff82111561099857610997610902565b5b6109a1826108f1565b9050602081019050919050565b82818337600083830152505050565b60006109d06109cb8461097d565b610962565b9050828152602081018484840111156109ec576109eb6108ec565b5b6109f78482856109ae565b509392505050565b600082601f830112610a1457610a136108e7565b5b8135610a248482602086016109bd565b91505092915050565b600060208284031215610a4357610a426108dd565b5b600082013567ffffffffffffffff811115610a6157610a606108e2565b5b610a6d848285016109ff565b91505092915050565b600073ffffffffffffffffffffffffffffffffffffffff82169050919050565b6000610aa182610a76565b9050919050565b610ab181610a96565b82525050565b600081519050919050565b600082825260208201905092915050565b60005b83811015610af1578082015181840152602081019050610ad6565b83811115610b00576000848401525b50505050565b6000610b1182610ab7565b610b1b8185610ac2565b9350610b2b818560208601610ad3565b610b34816108f1565b840191505092915050565b60008115159050919050565b610b5481610b3f565b82525050565b6000606082019050610b6f6000830186610aa8565b8181036020830152610b818185610b06565b9050610b906040830184610b4b565b949350505050565b610ba181610a96565b8114610bac57600080fd5b50565b600081359050610bbe81610b98565b92915050565b600060208284031215610bda57610bd96108dd565b5b6000610be884828501610baf565b91505092915050565b600081519050919050565b600082825260208201905092915050565b6000819050602082019050919050565b610c2681610a96565b82525050565b6000819050919050565b610c3f81610c2c565b82525050565b600082825260208201905092915050565b6000610c6182610ab7565b610c6b8185610c45565b9350610c7b818560208601610ad3565b610c84816108f1565b840191505092915050565b600060a083016000830151610ca76000860182610c1d565b506020830151610cba6020860182610c1d565b506040830151610ccd6040860182610c36565b5060608301518482036060860152610ce58282610c56565b9150506080830151610cfa6080860182610c36565b508091505092915050565b6000610d118383610c8f565b905092915050565b6000602082019050919050565b6000610d3182610bf1565b610d3b8185610bfc565b935083602082028501610d4d85610c0d565b8060005b85811015610d895784840389528151610d6a8582610d05565b9450610d7583610d19565b925060208a01995050600181019050610d51565b50829750879550505050505092915050565b60006020820190508181036000830152610db58184610d26565b905092915050565b600080600060608486031215610dd657610dd56108dd565b5b600084013567ffffffffffffffff811115610df457610df36108e2565b5b610e00868287016109ff565b935050602084013567ffffffffffffffff811115610e2157610e206108e2565b5b610e2d868287016109ff565b9250506040610e3e86828701610baf565b9150509250925092565b610e5181610c2c565b8114610e5c57600080fd5b50565b600081359050610e6e81610e48565b92915050565b60008060408385031215610e8b57610e8a6108dd565b5b6000610e9985828601610baf565b9250506020610eaa85828601610e5f565b9150509250929050565b600081905092915050565b6000610eca82610ab7565b610ed48185610eb4565b9350610ee4818560208601610ad3565b80840191505092915050565b6000610efc8284610ebf565b915081905092915050565b7f4e487b7100000000000000000000000000000000000000000000000000000000600052602260045260246000fd5b60006002820490506001821680610f4e57607f821691505b60208210811415610f6257610f61610f07565b5b50919050565b7f5573657220616c72656164792065786973747300000000000000000000000000600082015250565b6000610f9e601383610ac2565b9150610fa982610f68565b602082019050919050565b60006020820190508181036000830152610fcd81610f91565b9050919050565b60006020820190508181036000830152610fee8184610b06565b905092915050565b610fff81610c2c565b82525050565b600060208201905061101a6000830184610ff6565b9291505056fea2646970667358221220e3eca33445e887611289b33659dfa8f0fb0fc97106f960bd15284c8b3ca0b4d964736f6c63430008090033",
  "linkReferences": {},
  "deployedLinkReferences": {}
}